{
  "_format": "hh-sol-artifact-1",
  "contractName": "Token",
  "sourceName": "contracts/Token.sol",
  "abi": [
    {
      "inputs": [],
      "stateMutability": "nonpayable",
      "type": "constructor"
    },
    {
      "inputs": [
        {
          "internalType": "address",
          "name": "account",
          "type": "address"
        }
      ],
      "name": "balanceOf",
      "outputs": [
        {
          "internalType": "uint256",
          "name": "",
          "type": "uint256"
        }
      ],
      "stateMutability": "view",
      "type": "function"
    },
    {
      "inputs": [],
      "name": "name",
      "outputs": [
        {
          "internalType": "string",
          "name": "",
          "type": "string"
        }
      ],
      "stateMutability": "view",
      "type": "function"
    },
    {
      "inputs": [],
      "name": "owner",
      "outputs": [
        {
          "internalType": "address",
          "name": "",
          "type": "address"
        }
      ],
      "stateMutability": "view",
      "type": "function"
    },
    {
      "inputs": [],
      "name": "symbol",
      "outputs": [
        {
          "internalType": "string",
          "name": "",
          "type": "string"
        }
      ],
      "stateMutability": "view",
      "type": "function"
    },
    {
      "inputs": [],
      "name": "totalSupply",
      "outputs": [
        {
          "internalType": "uint256",
          "name": "",
          "type": "uint256"
        }
      ],
      "stateMutability": "view",
      "type": "function"
    },
    {
      "inputs": [
        {
          "internalType": "address",
          "name": "to",
          "type": "address"
        },
        {
          "internalType": "uint256",
          "name": "amount",
          "type": "uint256"
        }
      ],
      "name": "transfer",
      "outputs": [],
      "stateMutability": "nonpayable",
      "type": "function"
    }
  ],
  "bytecode": "0x60806040526040518060400160405280600d81526020017f4861726448617420546f6b656e00000000000000000000000000000000000000815250600090805190602001906200005192919062000258565b506040518060400160405280600381526020017f4848540000000000000000000000000000000000000000000000000000000000815250600190805190602001906200009f92919062000258565b50612710600255348015620000b357600080fd5b50620000ff6040518060400160405280600a81526020017f2a2062616c616e636520000000000000000000000000000000000000000000008152506200018c60201b620003ee1760201c565b600254600460003373ffffffffffffffffffffffffffffffffffffffff1673ffffffffffffffffffffffffffffffffffffffff1681526020019081526020016000208190555033600360006101000a81548173ffffffffffffffffffffffffffffffffffffffff021916908373ffffffffffffffffffffffffffffffffffffffff16021790555062000435565b6200022c81604051602401620001a39190620003ac565b6040516020818303038152906040527f41304fac000000000000000000000000000000000000000000000000000000007bffffffffffffffffffffffffffffffffffffffffffffffffffffffff19166020820180517bffffffffffffffffffffffffffffffffffffffffffffffffffffffff83818316178352505050506200022f60201b60201c565b50565b60008151905060006a636f6e736f6c652e6c6f679050602083016000808483855afa5050505050565b8280546200026690620003ff565b90600052602060002090601f0160209004810192826200028a5760008555620002d6565b82601f10620002a557805160ff1916838001178555620002d6565b82800160010185558215620002d6579182015b82811115620002d5578251825591602001919060010190620002b8565b5b509050620002e59190620002e9565b5090565b5b8082111562000304576000816000905550600101620002ea565b5090565b600081519050919050565b600082825260208201905092915050565b60005b838110156200034457808201518184015260208101905062000327565b8381111562000354576000848401525b50505050565b6000601f19601f8301169050919050565b6000620003788262000308565b62000384818562000313565b93506200039681856020860162000324565b620003a1816200035a565b840191505092915050565b60006020820190508181036000830152620003c881846200036b565b905092915050565b7f4e487b7100000000000000000000000000000000000000000000000000000000600052602260045260246000fd5b600060028204905060018216806200041857607f821691505b602082108114156200042f576200042e620003d0565b5b50919050565b61088180620004456000396000f3fe608060405234801561001057600080fd5b50600436106100625760003560e01c806306fdde031461006757806318160ddd1461008557806370a08231146100a35780638da5cb5b146100d357806395d89b41146100f1578063a9059cbb1461010f575b600080fd5b61006f61012b565b60405161007c9190610549565b60405180910390f35b61008d6101b9565b60405161009a9190610584565b60405180910390f35b6100bd60048036038101906100b89190610602565b6101bf565b6040516100ca9190610584565b60405180910390f35b6100db610208565b6040516100e8919061063e565b60405180910390f35b6100f961022e565b6040516101069190610549565b60405180910390f35b61012960048036038101906101249190610685565b6102bc565b005b60008054610138906106f4565b80601f0160208091040260200160405190810160405280929190818152602001828054610164906106f4565b80156101b15780601f10610186576101008083540402835291602001916101b1565b820191906000526020600020905b81548152906001019060200180831161019457829003601f168201915b505050505081565b60025481565b6000600460008373ffffffffffffffffffffffffffffffffffffffff1673ffffffffffffffffffffffffffffffffffffffff168152602001908152602001600020549050919050565b600360009054906101000a900473ffffffffffffffffffffffffffffffffffffffff1681565b6001805461023b906106f4565b80601f0160208091040260200160405190810160405280929190818152602001828054610267906106f4565b80156102b45780601f10610289576101008083540402835291602001916102b4565b820191906000526020600020905b81548152906001019060200180831161029757829003601f168201915b505050505081565b80600460003373ffffffffffffffffffffffffffffffffffffffff1673ffffffffffffffffffffffffffffffffffffffff16815260200190815260200160002054101561033e576040517f08c379a000000000000000000000000000000000000000000000000000000000815260040161033590610772565b60405180910390fd5b80600460003373ffffffffffffffffffffffffffffffffffffffff1673ffffffffffffffffffffffffffffffffffffffff168152602001908152602001600020600082825461038d91906107c1565b9250508190555080600460008473ffffffffffffffffffffffffffffffffffffffff1673ffffffffffffffffffffffffffffffffffffffff16815260200190815260200160002060008282546103e391906107f5565b925050819055505050565b610484816040516024016104029190610549565b6040516020818303038152906040527f41304fac000000000000000000000000000000000000000000000000000000007bffffffffffffffffffffffffffffffffffffffffffffffffffffffff19166020820180517bffffffffffffffffffffffffffffffffffffffffffffffffffffffff8381831617835250505050610487565b50565b60008151905060006a636f6e736f6c652e6c6f679050602083016000808483855afa5050505050565b600081519050919050565b600082825260208201905092915050565b60005b838110156104ea5780820151818401526020810190506104cf565b838111156104f9576000848401525b50505050565b6000601f19601f8301169050919050565b600061051b826104b0565b61052581856104bb565b93506105358185602086016104cc565b61053e816104ff565b840191505092915050565b600060208201905081810360008301526105638184610510565b905092915050565b6000819050919050565b61057e8161056b565b82525050565b60006020820190506105996000830184610575565b92915050565b600080fd5b600073ffffffffffffffffffffffffffffffffffffffff82169050919050565b60006105cf826105a4565b9050919050565b6105df816105c4565b81146105ea57600080fd5b50565b6000813590506105fc816105d6565b92915050565b6000602082840312156106185761061761059f565b5b6000610626848285016105ed565b91505092915050565b610638816105c4565b82525050565b6000602082019050610653600083018461062f565b92915050565b6106628161056b565b811461066d57600080fd5b50565b60008135905061067f81610659565b92915050565b6000806040838503121561069c5761069b61059f565b5b60006106aa858286016105ed565b92505060206106bb85828601610670565b9150509250929050565b7f4e487b7100000000000000000000000000000000000000000000000000000000600052602260045260246000fd5b6000600282049050600182168061070c57607f821691505b602082108114156107205761071f6106c5565b5b50919050565b7f4e6f7420656e6f75676820746f6b656e73000000000000000000000000000000600082015250565b600061075c6011836104bb565b915061076782610726565b602082019050919050565b6000602082019050818103600083015261078b8161074f565b9050919050565b7f4e487b7100000000000000000000000000000000000000000000000000000000600052601160045260246000fd5b60006107cc8261056b565b91506107d78361056b565b9250828210156107ea576107e9610792565b5b828203905092915050565b60006108008261056b565b915061080b8361056b565b9250827fffffffffffffffffffffffffffffffffffffffffffffffffffffffffffffffff038211156108405761083f610792565b5b82820190509291505056fea26469706673582212204536551946928e5f53206e1917e87580cb6114cad1e74aee7ebe18652e97a70264736f6c63430008090033",
  "linkReferences": {},
  "deployedLinkReferences": {}
}